1664GALAXY1  DAD           90010051119700101000000016501  
1664ONEDEFERRAL  Kid       90010029920100101000000009101  
1664Feb1_test  Dad         90010047719700101000000014101  
1664nov27  mom             90010043919711123000000013101  
1664jan25_2016  Dad        90010083019700101000000038101  
1664dell1019  dad          90010020019700101000000005501  
1664Oct23Btwo  Mom         90010027619750101000000008301  
1664Feb1_test  son         90010047820120101000000014101  
1664OTEA_15  Son           90010013420120101000000004201  
1664franklin  mom          90010078019900115000000037201  
1664Bond  James            90010030419700101000000009403  
1664CHILD_ONLY_CASE_TEST  g90010011719600101000000003501  
1664Davis  Son             90010028520120101000000008401  
1664EOct05Zsingle  Mom     90010005319700101000000001401  
1664volvo  son             90010029120120101000000008601  
1664TDD  Dad               90010012319700101000000003603  
1664TEA_10142015  Son      90010012620150101000000004001  
1664Oct05Bsingle  dad      90010039019701103000000007904  
1664GALAXY1  SON           90010051220120101000000016501  
1664DOct05Zsingle  Son     90010005020000112000000001301  
1664Oct07Atwo  Son         90010006720150101000000001801  
1664service  dad           90010045820111203000000013701  
1664Dec10single  Dad       90010052319700101000000016701  
1664Feb02two  Mom          90010090519820101000000038901  
1664nov27  dad             90010043819701123000000013101  
1664xyz_jan26_2016  son1   90010085120120101000000038601  
1664oneparent  Dad         90010029219700101000000008701  
1664bear  teddy            90010065219700101000000021101  
1664GRANDPA_CHILDONLY  Gran90010029619600101000000009001  
1664Davis  Mom             90010028419700101000000008401  
1664Oct23Atwo  Daughter    90010026720120101000000008101  
1664Davis  Dad             90010028319700101000000008401  
1664dell1019  son          90010020120120101000000005501  
1664Feb02Asingle  Son      90010091320110101000000039201  
1664service  son           90010046020121202000000013701  
1664feb12_2016  son1       90010105220050223000000042301  
1664Oct19Ctwo  Son         90010023120080101000000006901  
1664bearbaby  teddy        90010065320100101000000021101  
1664Oct19Aminor  Mom       90010020319750101000000005701  
1664franklin  dad          90010077619800106000000037201  
1664Nov03Atwo  Daughter    90010035920120101000000011101  
1664Jan15Asingle  Dad      90010078319800101000000037301  
1664OTEA_15  Dada          90010013319700101000000004201  
1664franklin  kid          90010078120100115000000037201  
1664Nov23single  Son       90010044620050101000000013404  
1664TEADIVERSION_TEST  Dada90010011519700101000000003403  
1664TDD  Son               90010012420100101000000003603  
1664jan1_monday  dad       90010047519700101000000014001  
1664CPP_TEST  Dad          90010027219700101000000008201  
1664Nov03Atwo  Mom         90010035819760101000000011101  
1664Employment  Dad        90010117319700101000000044003  
1664Oct19Aminor  Son       90010020520151001000000005701  
1664Nov03Atwo  Son         90010036019981001000000011101  
1664oneparent  Son         90010029320120101000000008701  
1664GRANDPA_CHILDONLY  Kid 90010029720120101000000009001  
1664Feb04single  Dad       90010093119800101000000040001  
1664Feb02two  Son          90010090620050101000000038901  
1664T2_10202015  Dad       90010023519700101000000006601  
1664REJECT_OCT26  Dad      90010031019700101000000009701  
1664Deferral4  Son         90010021320120101000000006001  
1664TE_OCT292015  SON      90010033820120101000000010701  
1664MParent3  Mom          90010017020000101000000005001  
1664SP  DAD                90010118919700101000000044301  
1664TAJ  Mom               90010028719700101000000008501  
1664Jan08  Son             90010074020100101000000035501  
1664Dec7_Monday  Dad       90010047319700101000000013901  
1664jan25_2016  son1       90010083120100101000000038101  
1664TOct10132015  Dad      90010010719700101000000003001  
1664CPP_TEST  Son          90010027420120101000000008201  
1664Jan20two  Dad          90010081419810101000000037601  
1664feb9_2016  dad         90010099419700101000000041501  
1664Feb02single  Son       90010091120100101000000039101  
1664feb9_2016  son         90010099520120101000000041501  
1664Oct23Btwo  Daughter    90010027720120101000000008301  
1664jan26_2016  son1       90010084720120101000000038501  
1664Dec10single  Son       90010052420100101000000016701  
1664Oct07Atwo  Mom         90010006519750101000000001801  
1664Employment  member     90010117620010101000000044003  
1664TD_feb22_2016  son1    90010112420120101000000043203  
1664Jan20two  Son          90010081620120101000000037601  
1664Deferral4  Dad         90010021219700101000000006001  
1664Feb02two  Dad          90010090419800101000000038901  
1664Jan08  Dad             90010073919700101000000035501  
1664Jan15Asingle  Son      90010078420120101000000037301  
1664DOct05Zsingle  Mom     90010005119700101000000001301  
1664REJECT_OCT26  son      90010031120120101000000009701  
1664TE_OCT292015  Dad      90010033719700101000000010701  
1664Employment  Son1       90010117420100101000000044003  
1664TEA_CASE_TEST  Son     90010011420100101000000003301  
1664DEF2  MOM              90010022719700101000000006301  
1664Oct23Atwo  Mom         90010026619750101000000008101  
1664Hanks  Tom             90010030619700101000000009503  
1664feb12_2016  dad        90010105119700901000000042301  
1664Nov03Atwo  Dad         90010035719750101000000011101  
1664jan26_2016  Dad        90010084619700101000000038501  
1664CO_oct10132015  Son    90010011220120101000000003201  
1664Feb03Achildonly  Son   90010092420050101000000039401  
1664nov27  son             90010044120001124000000013101  
1664TDOct10132015  Dad     90010010919700101000000003103  
1664Jan13single  Dad       90010075819750101000000036301  
1664jan25_2016  Mom        90010083219740101000000038101  
1664Jan19single  Son       90010080120100101000000037501  
16642P  MOM                90010119219800101000000044401  
1664Feb08Achildonly  Son   90010098720150101000000041401  
1664volvo  Mom             90010029019700101000000008601  
16642P  SON1               90010119320100101000000044401  
1664TEA_10142015  Dad      90010012519700101000000004001  
1664Oct19Ctwo  Daughter    90010022520120101000000006901  
1664Oct05Bsingle  Mom      90010004819700101000000007904  
1664Bond  Kid              90010030520120101000000009403  
1664TAJ  Dad               90010028619700101000000008501  
1664Dec7_Monday  Son       90010047420120101000000013901  
1664jan1_monday  son       90010047620120101000000014001  
1664DEF2  KID              90010022820120101000000006301  
1664T2_10202015  Son       90010023720120101000000006601  
1664Jan13single  Son       90010076120130101000000036301  
1664Employment  Son2       90010117520000101000000044003  
1664Oct19Btwo  Mom         90010021919750101000000006401  
1664Dec12Asingle  Dad      90010054619700101000000017101  
1664Oct15Achildonly  Mom   90010013619750101000000004301  
1664TD_feb22_2016  Dad     90010112319700101000000043203  
1664xyz_jan26_2016  dad    90010084819700101000000038601  
1664TAJ  Son               90010028820120101000000008501  
1664FOct05Zsingle  Son     90010005420100101000000004101  
1664Oct19Btwo  Dad         90010021819750101000000006401  
1664TEA_CASE_TEST  daughter90010018620001014000000003301  
1664TOct10132015  Son      90010010820120101000000003001  
1664SP  SON1               90010119020100101000000044301  
16642P  DAD                90010119119700101000000044401  
1664T2OCT26  Dad           90010030819700101000000009601  
1664EOct05Zsingle  Son     90010005220100101000000001401  
1664William  Sonoma        90010057319700612000000017301  
1664Jan19single  Dad       90010080019800101000000037501  
1664Sonoma  Bill           90010057420060101000000017301  
1664Oct23Btwo  Dad         90010027519750101000000008301  
1664CO_oct10132015  grandpa90010011119600101000000003201  
1664Feb02Asingle  Dad      90010091219800101000000039201  
1664CPP_TEST  Mom          90010027319700101000000008201  
1664DEF2  Dad              90010022619700101000000006301  
1664Hanks  Son             90010030720120101000000009503  
1664Oct19Btwo  Son         90010023020080101000000006401  
1664Smith  Babypat         90010065520120101000000021601  
1664CHILD_ONLY_CASE_TEST  k90010011820100101000000003501  
1664TEADIVERSION_TEST  Son 90010011620100101000000003403  
1664Mparent3  kid          90010017120150101000000005001  
1664Oct05Bsingle  Son      90010004720100101000000007904  
1664Jan20two  Mom          90010081519801011000000037601  
1664T2_10202015  Mom       90010023619700101000000006601  
1664Feb02single  Mom       90010091019820101000000039101  
1664Oct23Atwo  Son         90010026820080101000000008101  
1664Dec12Asingle  Son      50050111220100101000000017101  
1664Jan20childonly  Son    90010081820050101000000037701  
1664FOct05Zsingle  Mom     90010013119700101000000004101  
1664volvo  Dad             90010028919700101000000008601  
1664Oct23Atwo  Dad         90010026519750101000000008101  
1664TEA_CASE_TEST  Dad     90010011319700101000000003301  
1664Oct15Achildonly  Son   90010013820151001000000004301  
1664T2OCT26  SON           90010030920120101000000009601  
1664Feb04single  Son       90010094320060101000000040001  
1664james  dad             90010077419700115000000037101  
1664ONEDEFERRAL  Dad       90010029819700101000000009101  
1664nov27  daughter        90010044220051123000000013101  
1664Jfeb24_2016  Dad       90010114719700101000000043701  
1664MParent3  Grandpa      90010017219600101000000005001  
1664Oct19Ctwo  Dad         90010022319750101000000006901  
1664Nov23single  Mom       90010044519750101000000013404  
1664TDOct10132015  Son     90010011020140101000000003103  
1664Jfeb24_2016  Son1      90010114820100101000000043701  
1664Oct19Ctwo  Mom         90010022419750101000000006901  
1664Smith  Patricia        90010065419700101000000021601  
1664james  kid             90010077520100115000000037101  
